{
  "contractName": "SupplyChain",
  "abi": [
    {
      "constant": true,
      "inputs": [
        {
          "name": "",
          "type": "uint256"
        }
      ],
      "name": "items",
      "outputs": [
        {
          "name": "name",
          "type": "string"
        },
        {
          "name": "sku",
          "type": "uint256"
        },
        {
          "name": "price",
          "type": "uint256"
        },
        {
          "name": "state",
          "type": "uint8"
        },
        {
          "name": "seller",
          "type": "address"
        },
        {
          "name": "buyer",
          "type": "address"
        }
      ],
      "payable": false,
      "stateMutability": "view",
      "type": "function"
    },
    {
      "inputs": [],
      "payable": false,
      "stateMutability": "nonpayable",
      "type": "constructor"
    },
    {
      "anonymous": false,
      "inputs": [
        {
          "indexed": false,
          "name": "sku",
          "type": "uint256"
        }
      ],
      "name": "ForSale",
      "type": "event"
    },
    {
      "anonymous": false,
      "inputs": [
        {
          "indexed": false,
          "name": "sku",
          "type": "uint256"
        }
      ],
      "name": "Sold",
      "type": "event"
    },
    {
      "anonymous": false,
      "inputs": [
        {
          "indexed": false,
          "name": "sku",
          "type": "uint256"
        }
      ],
      "name": "Shipped",
      "type": "event"
    },
    {
      "anonymous": false,
      "inputs": [
        {
          "indexed": false,
          "name": "sku",
          "type": "uint256"
        }
      ],
      "name": "Received",
      "type": "event"
    },
    {
      "constant": false,
      "inputs": [
        {
          "name": "_name",
          "type": "string"
        },
        {
          "name": "_price",
          "type": "uint256"
        }
      ],
      "name": "addItem",
      "outputs": [],
      "payable": false,
      "stateMutability": "nonpayable",
      "type": "function"
    },
    {
      "constant": false,
      "inputs": [
        {
          "name": "sku",
          "type": "uint256"
        }
      ],
      "name": "buyItem",
      "outputs": [],
      "payable": true,
      "stateMutability": "payable",
      "type": "function"
    },
    {
      "constant": false,
      "inputs": [
        {
          "name": "sku",
          "type": "uint256"
        }
      ],
      "name": "shipItem",
      "outputs": [],
      "payable": false,
      "stateMutability": "nonpayable",
      "type": "function"
    },
    {
      "constant": false,
      "inputs": [
        {
          "name": "sku",
          "type": "uint256"
        }
      ],
      "name": "receiveItem",
      "outputs": [],
      "payable": false,
      "stateMutability": "nonpayable",
      "type": "function"
    },
    {
      "constant": true,
      "inputs": [
        {
          "name": "_sku",
          "type": "uint256"
        }
      ],
      "name": "fetchItem",
      "outputs": [
        {
          "name": "name",
          "type": "string"
        },
        {
          "name": "sku",
          "type": "uint256"
        },
        {
          "name": "price",
          "type": "uint256"
        },
        {
          "name": "state",
          "type": "uint256"
        },
        {
          "name": "seller",
          "type": "address"
        },
        {
          "name": "buyer",
          "type": "address"
        }
      ],
      "payable": false,
      "stateMutability": "view",
      "type": "function"
    }
  ],
  "bytecode": "0x608060405234801561001057600080fd5b50336000806101000a81548173ffffffffffffffffffffffffffffffffffffffff021916908373ffffffffffffffffffffffffffffffffffffffff1602179055506000600181905550610dba806100686000396000f300608060405260043610610078576000357c0100000000000000000000000000000000000000000000000000000000900463ffffffff16806362d6bbdf1461007d578063a26be999146100f0578063ad4b9cfb1461011d578063bfb231d21461023e578063e7fb74c71461036d578063f61c899a1461038d575b600080fd5b34801561008957600080fd5b506100ee600480360381019080803590602001908201803590602001908080601f0160208091040260200160405190810160405280939291908181526020018383808284378201915050505050509192919290803590602001909291905050506103ba565b005b3480156100fc57600080fd5b5061011b6004803603810190808035906020019092919050505061056b565b005b34801561012957600080fd5b5061014860048036038101908080359060200190929190505050610699565b60405180806020018781526020018681526020018581526020018473ffffffffffffffffffffffffffffffffffffffff1673ffffffffffffffffffffffffffffffffffffffff1681526020018373ffffffffffffffffffffffffffffffffffffffff1673ffffffffffffffffffffffffffffffffffffffff168152602001828103825288818151815260200191508051906020019080838360005b838110156101fe5780820151818401526020810190506101e3565b50505050905090810190601f16801561022b5780820380516001836020036101000a031916815260200191505b5097505050505050505060405180910390f35b34801561024a57600080fd5b5061026960048036038101908080359060200190929190505050610844565b604051808060200187815260200186815260200185600381111561028957fe5b60ff1681526020018473ffffffffffffffffffffffffffffffffffffffff1673ffffffffffffffffffffffffffffffffffffffff1681526020018373ffffffffffffffffffffffffffffffffffffffff1673ffffffffffffffffffffffffffffffffffffffff168152602001828103825288818151815260200191508051906020019080838360005b8381101561032d578082015181840152602081019050610312565b50505050905090810190601f16801561035a5780820380516001836020036101000a031916815260200191505b5097505050505050505060405180910390f35b61038b60048036038101908080359060200190929190505050610965565b005b34801561039957600080fd5b506103b860048036038101908080359060200190929190505050610bbc565b005b7fa96ae0fc3224ebd79eebfe54bd130cc9cb94416cddd1f2386115e00b725324686001546040518082815260200191505060405180910390a160c06040519081016040528083815260200160015481526020018281526020016000600381111561042057fe5b81526020013373ffffffffffffffffffffffffffffffffffffffff168152602001600073ffffffffffffffffffffffffffffffffffffffff16815250600260006001548152602001908152602001600020600082015181600001908051906020019061048d929190610ce9565b50602082015181600101556040820151816002015560608201518160030160006101000a81548160ff021916908360038111156104c657fe5b021790555060808201518160030160016101000a81548173ffffffffffffffffffffffffffffffffffffffff021916908373ffffffffffffffffffffffffffffffffffffffff16021790555060a08201518160040160006101000a81548173ffffffffffffffffffffffffffffffffffffffff021916908373ffffffffffffffffffffffffffffffffffffffff16021790555090505060018054016001819055505050565b806002600381111561057957fe5b6002600083815260200190815260200160002060030160009054906101000a900460ff1660038111156105a857fe5b1415156105b457600080fd5b6002600083815260200190815260200160002060040160009054906101000a900473ffffffffffffffffffffffffffffffffffffffff168073ffffffffffffffffffffffffffffffffffffffff163373ffffffffffffffffffffffffffffffffffffffff1614151561062557600080fd5b60036002600085815260200190815260200160002060030160006101000a81548160ff0219169083600381111561065857fe5b02179055507fa8142743f8f70a4c26f3691cf4ed59718381fb2f18070ec52be1f1022d855557836040518082815260200191505060405180910390a1505050565b60606000806000806000600260008881526020019081526020016000206000018054600181600116156101000203166002900480601f01602080910402602001604051908101604052809291908181526020018280546001816001161561010002031660029004801561074d5780601f106107225761010080835404028352916020019161074d565b820191906000526020600020905b81548152906001019060200180831161073057829003601f168201915b5050505050955060026000888152602001908152602001600020600101549450600260008881526020019081526020016000206002015493506002600088815260200190815260200160002060030160009054906101000a900460ff1660038111156107b557fe5b92506002600088815260200190815260200160002060030160019054906101000a900473ffffffffffffffffffffffffffffffffffffffff1691506002600088815260200190815260200160002060040160009054906101000a900473ffffffffffffffffffffffffffffffffffffffff16905085858585858595509550955095509550955091939550919395565b6002602052806000526040600020600091509050806000018054600181600116156101000203166002900480601f0160208091040260200160405190810160405280929190818152602001828054600181600116156101000203166002900480156108f05780601f106108c5576101008083540402835291602001916108f0565b820191906000526020600020905b8154815290600101906020018083116108d357829003601f168201915b5050505050908060010154908060020154908060030160009054906101000a900460ff16908060030160019054906101000a900473ffffffffffffffffffffffffffffffffffffffff16908060040160009054906101000a900473ffffffffffffffffffffffffffffffffffffffff16905086565b806000600381111561097357fe5b6002600083815260200190815260200160002060030160009054906101000a900460ff1660038111156109a257fe5b1415156109ae57600080fd5b818034101515156109be57600080fd5b8260008060016002600088815260200190815260200160002060030160006101000a81548160ff021916908360038111156109f557fe5b0217905550336002600088815260200190815260200160002060040160006101000a81548173ffffffffffffffffffffffffffffffffffffffff021916908373ffffffffffffffffffffffffffffffffffffffff1602179055506002600087815260200190815260200160002060030160019054906101000a900473ffffffffffffffffffffffffffffffffffffffff1673ffffffffffffffffffffffffffffffffffffffff166108fc60026000898152602001908152602001600020600201549081150290604051600060405180830381858888f19350505050158015610ae1573d6000803e3d6000fd5b507f92f64ca637d023f354075a4be751b169c1a8a9ccb6d33cdd0cb3520543995727866040518082815260200191505060405180910390a16002600084815260200190815260200160002060020154915081340390506002600084815260200190815260200160002060040160009054906101000a900473ffffffffffffffffffffffffffffffffffffffff1673ffffffffffffffffffffffffffffffffffffffff166108fc829081150290604051600060405180830381858888f19350505050158015610bb3573d6000803e3d6000fd5b50505050505050565b8060016003811115610bca57fe5b6002600083815260200190815260200160002060030160009054906101000a900460ff166003811115610bf957fe5b141515610c0557600080fd5b6002600083815260200190815260200160002060030160019054906101000a900473ffffffffffffffffffffffffffffffffffffffff168073ffffffffffffffffffffffffffffffffffffffff163373ffffffffffffffffffffffffffffffffffffffff16141515610c7657600080fd5b600280600085815260200190815260200160002060030160006101000a81548160ff02191690836003811115610ca857fe5b02179055507ff00b9a5725b80c54016f42114f6ed7792d22eecb116011c4afac29c57bef6c95836040518082815260200191505060405180910390a1505050565b828054600181600116156101000203166002900490600052602060002090601f016020900481019282601f10610d2a57805160ff1916838001178555610d58565b82800160010185558215610d58579182015b82811115610d57578251825591602001919060010190610d3c565b5b509050610d659190610d69565b5090565b610d8b91905b80821115610d87576000816000905550600101610d6f565b5090565b905600a165627a7a7230582070048e47fbb5da0b96ea0bca7d2af676340b8d9ea0bb3d0653a470e6da0541150029",
  "source": "pragma solidity ^0.4.24;\n\ncontract SupplyChain  {\n\n    address owner;\n    uint skuCount;\n    mapping (uint => Item) public items;\n\n    enum State { ForSale, Sold, Shipped, Received }\n\n    /* Create a struct named Item.\n    Here, add a name, sku, price, state, seller, and buyer\n    We've left you to figure out what the appropriate types are,\n    if you need help you can ask around :)\n  */\n\n    struct Item {\n        string name;\n        uint sku;\n        uint price;\n        State state;\n        address seller;\n        address buyer;\n    }\n\n\n    /* Create 4 events with the same name as each possible State (see above)\n      Each event should accept one argument, the sku*/\n      \n    event ForSale(uint sku);\n    event Sold(uint sku);\n    event Shipped(uint sku);\n    event Received(uint sku);\n\n    modifier isOwner() {\n        require(msg.sender == owner);\n        _;\n    }\n\n    modifier verifyCaller(address _address) {\n        require(msg.sender == _address);\n        _;\n    }\n\n    modifier paidEnough(uint _price) {\n        require(msg.value >= _price);\n        _;\n    }\n\n    modifier checkValue(uint _sku) {\n        //refund them after pay for item (why it is before, _ checks for logic before func)\n        _;\n        uint _price = items[_sku].price;\n        uint amountToRefund = msg.value - _price;\n        items[_sku].buyer.transfer(amountToRefund);\n    }\n\n    modifier forSale(uint _sku) {\n        require(items[_sku].state == State.ForSale);\n        _;\n    }\n\n    modifier sold(uint _sku) {\n        require(items[_sku].state == State.Sold);\n        _;\n    }\n\n    modifier shipped(uint _sku) {\n        require(items[_sku].state == State.Shipped);\n        _;\n    }\n\n    modifier received(uint _sku) {\n        require(items[_sku].state == State.Received);\n        _;\n    }\n\n    constructor() public {\n        owner = msg.sender;\n        skuCount = 0;\n    }\n\n    function addItem(string _name, uint _price) public {\n        emit ForSale(skuCount);\n\n        items[skuCount] = Item({\n            name: _name,\n            sku: skuCount,\n            price: _price,\n            state: State.ForSale,\n            seller: msg.sender,\n            buyer: 0\n        });\n\n        skuCount = skuCount + 1;\n    }\n\n    function buyItem(uint sku)\n    public payable forSale(sku) paidEnough(sku) checkValue(sku)\n    {\n        items[sku].state = State.Sold;\n        items[sku].buyer = msg.sender;\n        items[sku].seller.transfer(items[sku].price);\n        emit Sold(sku);\n    }\n\n    function shipItem(uint sku)\n    public sold(sku) verifyCaller(items[sku].seller)\n    {\n        items[sku].state = State.Shipped;\n        emit Shipped(sku);\n    }\n\n    function receiveItem(uint sku)\n    public shipped(sku) verifyCaller(items[sku].buyer)\n    {\n        items[sku].state = State.Received;\n        emit Received(sku);\n    }\n\n    // used for testing...\n    function fetchItem(uint _sku)\n        public view\n        returns (string name, uint sku, uint price, uint state, address seller, address buyer)\n    {\n        name = items[_sku].name;\n        sku = items[_sku].sku;\n        price = items[_sku].price;\n        state = uint(items[_sku].state);\n        seller = items[_sku].seller;\n        buyer = items[_sku].buyer;\n        return (name, sku, price, state, seller, buyer);\n    }\n\n}\n",
  "sourcePath": "/home/rama/github/supply-chain-venkataramanaidu/contracts/SupplyChain.sol",
  "compiler": {
    "name": "solc",
    "version": "0.4.24+commit.e67f0147.Emscripten.clang"
  },
  "schemaVersion": "2.0.1",
  "updatedAt": "2018-12-01T01:14:53.410Z"
}